{
  "_format": "hh-sol-artifact-1",
  "contractName": "HyojaeNFT",
  "sourceName": "contracts/hyojaeNFT.sol",
  "abi": [
    {
      "inputs": [],
      "stateMutability": "nonpayable",
      "type": "constructor"
    },
    {
      "anonymous": false,
      "inputs": [
        {
          "indexed": true,
          "internalType": "address",
          "name": "owner",
          "type": "address"
        },
        {
          "indexed": true,
          "internalType": "address",
          "name": "approved",
          "type": "address"
        },
        {
          "indexed": true,
          "internalType": "uint256",
          "name": "tokenId",
          "type": "uint256"
        }
      ],
      "name": "Approval",
      "type": "event"
    },
    {
      "anonymous": false,
      "inputs": [
        {
          "indexed": true,
          "internalType": "address",
          "name": "owner",
          "type": "address"
        },
        {
          "indexed": true,
          "internalType": "address",
          "name": "operator",
          "type": "address"
        },
        {
          "indexed": false,
          "internalType": "bool",
          "name": "approved",
          "type": "bool"
        }
      ],
      "name": "ApprovalForAll",
      "type": "event"
    },
    {
      "anonymous": false,
      "inputs": [
        {
          "indexed": true,
          "internalType": "address",
          "name": "from",
          "type": "address"
        },
        {
          "indexed": true,
          "internalType": "address",
          "name": "to",
          "type": "address"
        },
        {
          "indexed": true,
          "internalType": "uint256",
          "name": "tokenId",
          "type": "uint256"
        }
      ],
      "name": "Transfer",
      "type": "event"
    },
    {
      "anonymous": false,
      "inputs": [
        {
          "indexed": false,
          "internalType": "uint256",
          "name": "senderTokenId",
          "type": "uint256"
        },
        {
          "indexed": false,
          "internalType": "uint256",
          "name": "recipientTokenId",
          "type": "uint256"
        },
        {
          "indexed": true,
          "internalType": "address",
          "name": "issuer",
          "type": "address"
        },
        {
          "indexed": false,
          "internalType": "address",
          "name": "recipient",
          "type": "address"
        }
      ],
      "name": "cardExchanged",
      "type": "event"
    },
    {
      "anonymous": false,
      "inputs": [
        {
          "indexed": true,
          "internalType": "uint256",
          "name": "tokenId",
          "type": "uint256"
        },
        {
          "indexed": false,
          "internalType": "address",
          "name": "issuer",
          "type": "address"
        }
      ],
      "name": "mintCard",
      "type": "event"
    },
    {
      "anonymous": false,
      "inputs": [
        {
          "indexed": true,
          "internalType": "address",
          "name": "issuer",
          "type": "address"
        },
        {
          "indexed": false,
          "internalType": "string",
          "name": "name",
          "type": "string"
        },
        {
          "indexed": false,
          "internalType": "uint8",
          "name": "age",
          "type": "uint8"
        },
        {
          "indexed": false,
          "internalType": "string",
          "name": "email",
          "type": "string"
        },
        {
          "indexed": false,
          "internalType": "string",
          "name": "website",
          "type": "string"
        },
        {
          "indexed": false,
          "internalType": "string",
          "name": "gender",
          "type": "string"
        }
      ],
      "name": "registerInfo",
      "type": "event"
    },
    {
      "inputs": [
        {
          "internalType": "address",
          "name": "to",
          "type": "address"
        },
        {
          "internalType": "uint256",
          "name": "tokenId",
          "type": "uint256"
        }
      ],
      "name": "approve",
      "outputs": [],
      "stateMutability": "nonpayable",
      "type": "function"
    },
    {
      "inputs": [
        {
          "internalType": "address",
          "name": "owner",
          "type": "address"
        }
      ],
      "name": "balanceOf",
      "outputs": [
        {
          "internalType": "uint256",
          "name": "",
          "type": "uint256"
        }
      ],
      "stateMutability": "view",
      "type": "function"
    },
    {
      "inputs": [
        {
          "internalType": "address",
          "name": "_to",
          "type": "address"
        }
      ],
      "name": "exchangeCard",
      "outputs": [],
      "stateMutability": "nonpayable",
      "type": "function"
    },
    {
      "inputs": [
        {
          "internalType": "uint256",
          "name": "tokenId",
          "type": "uint256"
        }
      ],
      "name": "getApproved",
      "outputs": [
        {
          "internalType": "address",
          "name": "",
          "type": "address"
        }
      ],
      "stateMutability": "view",
      "type": "function"
    },
    {
      "inputs": [
        {
          "internalType": "uint256",
          "name": "tokenId",
          "type": "uint256"
        }
      ],
      "name": "getCardInfos",
      "outputs": [
        {
          "components": [
            {
              "internalType": "string",
              "name": "name",
              "type": "string"
            },
            {
              "internalType": "uint8",
              "name": "age",
              "type": "uint8"
            },
            {
              "internalType": "string",
              "name": "email",
              "type": "string"
            },
            {
              "internalType": "string",
              "name": "website",
              "type": "string"
            },
            {
              "internalType": "string",
              "name": "gender",
              "type": "string"
            }
          ],
          "internalType": "struct HyojaeNFT.BusinessCard",
          "name": "",
          "type": "tuple"
        }
      ],
      "stateMutability": "view",
      "type": "function"
    },
    {
      "inputs": [
        {
          "internalType": "address",
          "name": "owner",
          "type": "address"
        },
        {
          "internalType": "address",
          "name": "operator",
          "type": "address"
        }
      ],
      "name": "isApprovedForAll",
      "outputs": [
        {
          "internalType": "bool",
          "name": "",
          "type": "bool"
        }
      ],
      "stateMutability": "view",
      "type": "function"
    },
    {
      "inputs": [],
      "name": "mintFee",
      "outputs": [
        {
          "internalType": "uint256",
          "name": "",
          "type": "uint256"
        }
      ],
      "stateMutability": "view",
      "type": "function"
    },
    {
      "inputs": [],
      "name": "name",
      "outputs": [
        {
          "internalType": "string",
          "name": "",
          "type": "string"
        }
      ],
      "stateMutability": "view",
      "type": "function"
    },
    {
      "inputs": [
        {
          "internalType": "uint256",
          "name": "tokenId",
          "type": "uint256"
        }
      ],
      "name": "ownerOf",
      "outputs": [
        {
          "internalType": "address",
          "name": "",
          "type": "address"
        }
      ],
      "stateMutability": "view",
      "type": "function"
    },
    {
      "inputs": [
        {
          "internalType": "string",
          "name": "_name",
          "type": "string"
        },
        {
          "internalType": "uint8",
          "name": "_age",
          "type": "uint8"
        },
        {
          "internalType": "string",
          "name": "_email",
          "type": "string"
        },
        {
          "internalType": "string",
          "name": "_website",
          "type": "string"
        },
        {
          "internalType": "string",
          "name": "_gender",
          "type": "string"
        }
      ],
      "name": "registerCard",
      "outputs": [],
      "stateMutability": "payable",
      "type": "function"
    },
    {
      "inputs": [
        {
          "internalType": "address",
          "name": "from",
          "type": "address"
        },
        {
          "internalType": "address",
          "name": "to",
          "type": "address"
        },
        {
          "internalType": "uint256",
          "name": "tokenId",
          "type": "uint256"
        }
      ],
      "name": "safeTransferFrom",
      "outputs": [],
      "stateMutability": "nonpayable",
      "type": "function"
    },
    {
      "inputs": [
        {
          "internalType": "address",
          "name": "from",
          "type": "address"
        },
        {
          "internalType": "address",
          "name": "to",
          "type": "address"
        },
        {
          "internalType": "uint256",
          "name": "tokenId",
          "type": "uint256"
        },
        {
          "internalType": "bytes",
          "name": "data",
          "type": "bytes"
        }
      ],
      "name": "safeTransferFrom",
      "outputs": [],
      "stateMutability": "nonpayable",
      "type": "function"
    },
    {
      "inputs": [
        {
          "internalType": "address",
          "name": "operator",
          "type": "address"
        },
        {
          "internalType": "bool",
          "name": "approved",
          "type": "bool"
        }
      ],
      "name": "setApprovalForAll",
      "outputs": [],
      "stateMutability": "nonpayable",
      "type": "function"
    },
    {
      "inputs": [
        {
          "internalType": "bytes4",
          "name": "interfaceId",
          "type": "bytes4"
        }
      ],
      "name": "supportsInterface",
      "outputs": [
        {
          "internalType": "bool",
          "name": "",
          "type": "bool"
        }
      ],
      "stateMutability": "view",
      "type": "function"
    },
    {
      "inputs": [],
      "name": "symbol",
      "outputs": [
        {
          "internalType": "string",
          "name": "",
          "type": "string"
        }
      ],
      "stateMutability": "view",
      "type": "function"
    },
    {
      "inputs": [
        {
          "internalType": "uint256",
          "name": "index",
          "type": "uint256"
        }
      ],
      "name": "tokenByIndex",
      "outputs": [
        {
          "internalType": "uint256",
          "name": "",
          "type": "uint256"
        }
      ],
      "stateMutability": "view",
      "type": "function"
    },
    {
      "inputs": [
        {
          "internalType": "address",
          "name": "owner",
          "type": "address"
        },
        {
          "internalType": "uint256",
          "name": "index",
          "type": "uint256"
        }
      ],
      "name": "tokenOfOwnerByIndex",
      "outputs": [
        {
          "internalType": "uint256",
          "name": "",
          "type": "uint256"
        }
      ],
      "stateMutability": "view",
      "type": "function"
    },
    {
      "inputs": [
        {
          "internalType": "uint256",
          "name": "tokenId",
          "type": "uint256"
        }
      ],
      "name": "tokenURI",
      "outputs": [
        {
          "internalType": "string",
          "name": "",
          "type": "string"
        }
      ],
      "stateMutability": "view",
      "type": "function"
    },
    {
      "inputs": [],
      "name": "totalSupply",
      "outputs": [
        {
          "internalType": "uint256",
          "name": "",
          "type": "uint256"
        }
      ],
      "stateMutability": "view",
      "type": "function"
    },
    {
      "inputs": [
        {
          "internalType": "address",
          "name": "from",
          "type": "address"
        },
        {
          "internalType": "address",
          "name": "to",
          "type": "address"
        },
        {
          "internalType": "uint256",
          "name": "tokenId",
          "type": "uint256"
        }
      ],
      "name": "transferFrom",
      "outputs": [],
      "stateMutability": "nonpayable",
      "type": "function"
    }
  ],
  "bytecode": "0x60806040523480156200001157600080fd5b506040518060400160405280600981526020017f48796f6a61654e465400000000000000000000000000000000000000000000008152506040518060400160405280600681526020017f68796f6a6165000000000000000000000000000000000000000000000000000081525081600090816200008f919062000324565b508060019081620000a1919062000324565b5050506200040b565b600081519050919050565b7f4e487b7100000000000000000000000000000000000000000000000000000000600052604160045260246000fd5b7f4e487b7100000000000000000000000000000000000000000000000000000000600052602260045260246000fd5b600060028204905060018216806200012c57607f821691505b602082108103620001425762000141620000e4565b5b50919050565b60008190508160005260206000209050919050565b60006020601f8301049050919050565b600082821b905092915050565b600060088302620001ac7fffffffffffffffffffffffffffffffffffffffffffffffffffffffffffffffff826200016d565b620001b886836200016d565b95508019841693508086168417925050509392505050565b6000819050919050565b6000819050919050565b600062000205620001ff620001f984620001d0565b620001da565b620001d0565b9050919050565b6000819050919050565b6200022183620001e4565b6200023962000230826200020c565b8484546200017a565b825550505050565b600090565b6200025062000241565b6200025d81848462000216565b505050565b5b8181101562000285576200027960008262000246565b60018101905062000263565b5050565b601f821115620002d4576200029e8162000148565b620002a9846200015d565b81016020851015620002b9578190505b620002d1620002c8856200015d565b83018262000262565b50505b505050565b600082821c905092915050565b6000620002f960001984600802620002d9565b1980831691505092915050565b6000620003148383620002e6565b9150826002028217905092915050565b6200032f82620000aa565b67ffffffffffffffff8111156200034b576200034a620000b5565b5b62000357825462000113565b6200036482828562000289565b600060209050601f8311600181146200039c576000841562000387578287015190505b62000393858262000306565b86555062000403565b601f198416620003ac8662000148565b60005b82811015620003d657848901518255600182019150602085019450602081019050620003af565b86831015620003f65784890151620003f2601f891682620002e6565b8355505b6001600288020188555050505b505050505050565b61407e806200041b6000396000f3fe60806040526004361061011f5760003560e01c80636352211e116100a0578063c87b56dd11610064578063c87b56dd1461040b578063d9673a6c14610448578063e9770a6414610485578063e985e9c5146104ae578063ee5f69fc146104eb5761011f565b80636352211e1461031457806370a082311461035157806395d89b411461038e578063a22cb465146103b9578063b88d4fde146103e25761011f565b806318160ddd116100e757806318160ddd1461021d57806323b872dd146102485780632f745c591461027157806342842e0e146102ae5780634f6ccce7146102d75761011f565b806301ffc9a71461012457806306fdde0314610161578063081812fc1461018c578063095ea7b3146101c957806313966db5146101f2575b600080fd5b34801561013057600080fd5b5061014b600480360381019061014691906127ae565b610507565b60405161015891906127f6565b60405180910390f35b34801561016d57600080fd5b50610176610581565b60405161018391906128a1565b60405180910390f35b34801561019857600080fd5b506101b360048036038101906101ae91906128f9565b610613565b6040516101c09190612967565b60405180910390f35b3480156101d557600080fd5b506101f060048036038101906101eb91906129ae565b610659565b005b3480156101fe57600080fd5b50610207610770565b60405161021491906129fd565b60405180910390f35b34801561022957600080fd5b5061023261077c565b60405161023f91906129fd565b60405180910390f35b34801561025457600080fd5b5061026f600480360381019061026a9190612a18565b610789565b005b34801561027d57600080fd5b50610298600480360381019061029391906129ae565b6107e9565b6040516102a591906129fd565b60405180910390f35b3480156102ba57600080fd5b506102d560048036038101906102d09190612a18565b61088e565b005b3480156102e357600080fd5b506102fe60048036038101906102f991906128f9565b6108ae565b60405161030b91906129fd565b60405180910390f35b34801561032057600080fd5b5061033b600480360381019061033691906128f9565b61091f565b6040516103489190612967565b60405180910390f35b34801561035d57600080fd5b5061037860048036038101906103739190612a6b565b6109a5565b60405161038591906129fd565b60405180910390f35b34801561039a57600080fd5b506103a3610a5c565b6040516103b091906128a1565b60405180910390f35b3480156103c557600080fd5b506103e060048036038101906103db9190612ac4565b610aee565b005b3480156103ee57600080fd5b5061040960048036038101906104049190612c39565b610b04565b005b34801561041757600080fd5b50610432600480360381019061042d91906128f9565b610b66565b60405161043f91906128a1565b60405180910390f35b34801561045457600080fd5b5061046f600480360381019061046a91906128f9565b610bce565b60405161047c9190612dad565b60405180910390f35b34801561049157600080fd5b506104ac60048036038101906104a79190612a6b565b610e60565b005b3480156104ba57600080fd5b506104d560048036038101906104d09190612dcf565b610fef565b6040516104e291906127f6565b60405180910390f35b61050560048036038101906105009190612edc565b611083565b005b60007f780e9d63000000000000000000000000000000000000000000000000000000007bffffffffffffffffffffffffffffffffffffffffffffffffffffffff1916827bffffffffffffffffffffffffffffffffffffffffffffffffffffffff1916148061057a575061057982611451565b5b9050919050565b60606000805461059090612ff6565b80601f01602080910402602001604051908101604052809291908181526020018280546105bc90612ff6565b80156106095780601f106105de57610100808354040283529160200191610609565b820191906000526020600020905b8154815290600101906020018083116105ec57829003601f168201915b5050505050905090565b600061061e82611533565b6004600083815260200190815260200160002060009054906101000a900473ffffffffffffffffffffffffffffffffffffffff169050919050565b60006106648261091f565b90508073ffffffffffffffffffffffffffffffffffffffff168373ffffffffffffffffffffffffffffffffffffffff16036106d4576040517f08c379a00000000000000000000000000000000000000000000000000000000081526004016106cb90613099565b60405180910390fd5b8073ffffffffffffffffffffffffffffffffffffffff166106f361157e565b73ffffffffffffffffffffffffffffffffffffffff16148061072257506107218161071c61157e565b610fef565b5b610761576040517f08c379a00000000000000000000000000000000000000000000000000000000081526004016107589061312b565b60405180910390fd5b61076b8383611586565b505050565b67016345785d8a000081565b6000600880549050905090565b61079a61079461157e565b8261163f565b6107d9576040517f08c379a00000000000000000000000000000000000000000000000000000000081526004016107d0906131bd565b60405180910390fd5b6107e48383836116d4565b505050565b60006107f4836109a5565b8210610835576040517f08c379a000000000000000000000000000000000000000000000000000000000815260040161082c9061324f565b60405180910390fd5b600660008473ffffffffffffffffffffffffffffffffffffffff1673ffffffffffffffffffffffffffffffffffffffff168152602001908152602001600020600083815260200190815260200160002054905092915050565b6108a983838360405180602001604052806000815250610b04565b505050565b60006108b861077c565b82106108f9576040517f08c379a00000000000000000000000000000000000000000000000000000000081526004016108f0906132e1565b60405180910390fd5b6008828154811061090d5761090c613301565b5b90600052602060002001549050919050565b60008061092b836119cd565b9050600073ffffffffffffffffffffffffffffffffffffffff168173ffffffffffffffffffffffffffffffffffffffff160361099c576040517f08c379a00000000000000000000000000000000000000000000000000000000081526004016109939061337c565b60405180910390fd5b80915050919050565b60008073ffffffffffffffffffffffffffffffffffffffff168273ffffffffffffffffffffffffffffffffffffffff1603610a15576040517f08c379a0000000000000000000000000000000000000000000000000000000008152600401610a0c9061340e565b60405180910390fd5b600360008373ffffffffffffffffffffffffffffffffffffffff1673ffffffffffffffffffffffffffffffffffffffff168152602001908152602001600020549050919050565b606060018054610a6b90612ff6565b80601f0160208091040260200160405190810160405280929190818152602001828054610a9790612ff6565b8015610ae45780601f10610ab957610100808354040283529160200191610ae4565b820191906000526020600020905b815481529060010190602001808311610ac757829003601f168201915b5050505050905090565b610b00610af961157e565b8383611a0a565b5050565b610b15610b0f61157e565b8361163f565b610b54576040517f08c379a0000000000000000000000000000000000000000000000000000000008152600401610b4b906131bd565b60405180910390fd5b610b6084848484611b76565b50505050565b6060610b7182611533565b6000610b7b611bd2565b90506000815111610b9b5760405180602001604052806000815250610bc6565b80610ba584611be9565b604051602001610bb692919061346a565b6040516020818303038152906040525b915050919050565b610bd6612710565b600b60008381526020019081526020016000206040518060a0016040529081600082018054610c0490612ff6565b80601f0160208091040260200160405190810160405280929190818152602001828054610c3090612ff6565b8015610c7d5780601f10610c5257610100808354040283529160200191610c7d565b820191906000526020600020905b815481529060010190602001808311610c6057829003601f168201915b505050505081526020016001820160009054906101000a900460ff1660ff1660ff168152602001600282018054610cb390612ff6565b80601f0160208091040260200160405190810160405280929190818152602001828054610cdf90612ff6565b8015610d2c5780601f10610d0157610100808354040283529160200191610d2c565b820191906000526020600020905b815481529060010190602001808311610d0f57829003601f168201915b50505050508152602001600382018054610d4590612ff6565b80601f0160208091040260200160405190810160405280929190818152602001828054610d7190612ff6565b8015610dbe5780601f10610d9357610100808354040283529160200191610dbe565b820191906000526020600020905b815481529060010190602001808311610da157829003601f168201915b50505050508152602001600482018054610dd790612ff6565b80601f0160208091040260200160405190810160405280929190818152602001828054610e0390612ff6565b8015610e505780601f10610e2557610100808354040283529160200191610e50565b820191906000526020600020905b815481529060010190602001808311610e3357829003601f168201915b5050505050815250509050919050565b6000600d60003373ffffffffffffffffffffffffffffffffffffffff1673ffffffffffffffffffffffffffffffffffffffff1681526020019081526020016000205411610ee2576040517f08c379a0000000000000000000000000000000000000000000000000000000008152600401610ed990613500565b60405180910390fd5b6000600d60008373ffffffffffffffffffffffffffffffffffffffff1673ffffffffffffffffffffffffffffffffffffffff1681526020019081526020016000205411610f64576040517f08c379a0000000000000000000000000000000000000000000000000000000008152600401610f5b90613592565b60405180910390fd5b6000610f713360006107e9565b90506000610f808360006107e9565b9050610f8d3384846116d4565b610f988333836116d4565b3373ffffffffffffffffffffffffffffffffffffffff167f1b1719e90e5e5f41f964cd76e1f63409f72d9da3b5278e20c1f933e7983de195838386604051610fe2939291906135b2565b60405180910390a2505050565b6000600560008473ffffffffffffffffffffffffffffffffffffffff1673ffffffffffffffffffffffffffffffffffffffff16815260200190815260200160002060008373ffffffffffffffffffffffffffffffffffffffff1673ffffffffffffffffffffffffffffffffffffffff16815260200190815260200160002060009054906101000a900460ff16905092915050565b600080600d60003373ffffffffffffffffffffffffffffffffffffffff1673ffffffffffffffffffffffffffffffffffffffff16815260200190815260200160002054119050801561111e5767016345785d8a00003414611119576040517f08c379a000000000000000000000000000000000000000000000000000000000815260040161111090613635565b60405180910390fd5b611162565b60003414611161576040517f08c379a0000000000000000000000000000000000000000000000000000000008152600401611158906136a1565b60405180910390fd5b5b6040518060a001604052808781526020018660ff16815260200185815260200184815260200183815250600c60003373ffffffffffffffffffffffffffffffffffffffff1673ffffffffffffffffffffffffffffffffffffffff16815260200190815260200160002060008201518160000190816111e0919061386d565b5060208201518160010160006101000a81548160ff021916908360ff1602179055506040820151816002019081611217919061386d565b50606082015181600301908161122d919061386d565b506080820151816004019081611243919061386d565b509050503373ffffffffffffffffffffffffffffffffffffffff167fdbea75cd1e8a87cc0bd734895b7cce34a5c93d3a4954814db89a41a4e8a0e24b878787878760405161129595949392919061394e565b60405180910390a260005b600a8160ff1610156113f1576112b6600a611cb7565b60006112c2600a611ccd565b90506112ce3382611cdb565b600c60003373ffffffffffffffffffffffffffffffffffffffff1673ffffffffffffffffffffffffffffffffffffffff168152602001908152602001600020600b60008381526020019081526020016000206000820181600001908161133491906139d3565b506001820160009054906101000a900460ff168160010160006101000a81548160ff021916908360ff1602179055506002820181600201908161137791906139d3565b506003820181600301908161138c91906139d3565b50600482018160040190816113a191906139d3565b50905050807fe933cfb0e88f931685349b9f6c3596bb13c09176d65538ec28ccad11c70e9302336040516113d59190612967565b60405180910390a25080806113e990613aea565b9150506112a0565b50600a600d60003373ffffffffffffffffffffffffffffffffffffffff1673ffffffffffffffffffffffffffffffffffffffff16815260200190815260200160002060008282546114429190613b13565b92505081905550505050505050565b60007f80ac58cd000000000000000000000000000000000000000000000000000000007bffffffffffffffffffffffffffffffffffffffffffffffffffffffff1916827bffffffffffffffffffffffffffffffffffffffffffffffffffffffff1916148061151c57507f5b5e139f000000000000000000000000000000000000000000000000000000007bffffffffffffffffffffffffffffffffffffffffffffffffffffffff1916827bffffffffffffffffffffffffffffffffffffffffffffffffffffffff1916145b8061152c575061152b82611ef8565b5b9050919050565b61153c81611f62565b61157b576040517f08c379a00000000000000000000000000000000000000000000000000000000081526004016115729061337c565b60405180910390fd5b50565b600033905090565b816004600083815260200190815260200160002060006101000a81548173ffffffffffffffffffffffffffffffffffffffff021916908373ffffffffffffffffffffffffffffffffffffffff160217905550808273ffffffffffffffffffffffffffffffffffffffff166115f98361091f565b73ffffffffffffffffffffffffffffffffffffffff167f8c5be1e5ebec7d5bd14f71427d1e84f3dd0314c0f7b2291e5b200ac8c7c3b92560405160405180910390a45050565b60008061164b8361091f565b90508073ffffffffffffffffffffffffffffffffffffffff168473ffffffffffffffffffffffffffffffffffffffff16148061168d575061168c8185610fef565b5b806116cb57508373ffffffffffffffffffffffffffffffffffffffff166116b384610613565b73ffffffffffffffffffffffffffffffffffffffff16145b91505092915050565b8273ffffffffffffffffffffffffffffffffffffffff166116f48261091f565b73ffffffffffffffffffffffffffffffffffffffff161461174a576040517f08c379a000000000000000000000000000000000000000000000000000000000815260040161174190613bb9565b60405180910390fd5b600073ffffffffffffffffffffffffffffffffffffffff168273ffffffffffffffffffffffffffffffffffffffff16036117b9576040517f08c379a00000000000000000000000000000000000000000000000000000000081526004016117b090613c4b565b60405180910390fd5b6117c68383836001611fa3565b8273ffffffffffffffffffffffffffffffffffffffff166117e68261091f565b73ffffffffffffffffffffffffffffffffffffffff161461183c576040517f08c379a000000000000000000000000000000000000000000000000000000000815260040161183390613bb9565b60405180910390fd5b6004600082815260200190815260200160002060006101000a81549073ffffffffffffffffffffffffffffffffffffffff02191690556001600360008573ffffffffffffffffffffffffffffffffffffffff1673ffffffffffffffffffffffffffffffffffffffff168152602001908152602001600020600082825403925050819055506001600360008473ffffffffffffffffffffffffffffffffffffffff1673ffffffffffffffffffffffffffffffffffffffff16815260200190815260200160002060008282540192505081905550816002600083815260200190815260200160002060006101000a81548173ffffffffffffffffffffffffffffffffffffffff021916908373ffffffffffffffffffffffffffffffffffffffff160217905550808273ffffffffffffffffffffffffffffffffffffffff168473ffffffffffffffffffffffffffffffffffffffff167fddf252ad1be2c89b69c2b068fc378daa952ba7f163c4a11628f55a4df523b3ef60405160405180910390a46119c88383836001612101565b505050565b60006002600083815260200190815260200160002060009054906101000a900473ffffffffffffffffffffffffffffffffffffffff169050919050565b8173ffffffffffffffffffffffffffffffffffffffff168373ffffffffffffffffffffffffffffffffffffffff1603611a78576040517f08c379a0000000000000000000000000000000000000000000000000000000008152600401611a6f90613cb7565b60405180910390fd5b80600560008573ffffffffffffffffffffffffffffffffffffffff1673ffffffffffffffffffffffffffffffffffffffff16815260200190815260200160002060008473ffffffffffffffffffffffffffffffffffffffff1673ffffffffffffffffffffffffffffffffffffffff16815260200190815260200160002060006101000a81548160ff0219169083151502179055508173ffffffffffffffffffffffffffffffffffffffff168373ffffffffffffffffffffffffffffffffffffffff167f17307eab39ab6107e8899845ad3d59bd9653f200f220920489ca2b5937696c3183604051611b6991906127f6565b60405180910390a3505050565b611b818484846116d4565b611b8d84848484612107565b611bcc576040517f08c379a0000000000000000000000000000000000000000000000000000000008152600401611bc390613d49565b60405180910390fd5b50505050565b606060405180602001604052806000815250905090565b606060006001611bf88461228e565b01905060008167ffffffffffffffff811115611c1757611c16612b0e565b5b6040519080825280601f01601f191660200182016040528015611c495781602001600182028036833780820191505090505b509050600082602001820190505b600115611cac578080600190039150507f3031323334353637383961626364656600000000000000000000000000000000600a86061a8153600a8581611ca057611c9f613d69565b5b04945060008503611c57575b819350505050919050565b6001816000016000828254019250508190555050565b600081600001549050919050565b600073ffffffffffffffffffffffffffffffffffffffff168273ffffffffffffffffffffffffffffffffffffffff1603611d4a576040517f08c379a0000000000000000000000000000000000000000000000000000000008152600401611d4190613de4565b60405180910390fd5b611d5381611f62565b15611d93576040517f08c379a0000000000000000000000000000000000000000000000000000000008152600401611d8a90613e50565b60405180910390fd5b611da1600083836001611fa3565b611daa81611f62565b15611dea576040517f08c379a0000000000000000000000000000000000000000000000000000000008152600401611de190613e50565b60405180910390fd5b6001600360008473ffffffffffffffffffffffffffffffffffffffff1673ffffffffffffffffffffffffffffffffffffffff16815260200190815260200160002060008282540192505081905550816002600083815260200190815260200160002060006101000a81548173ffffffffffffffffffffffffffffffffffffffff021916908373ffffffffffffffffffffffffffffffffffffffff160217905550808273ffffffffffffffffffffffffffffffffffffffff16600073ffffffffffffffffffffffffffffffffffffffff167fddf252ad1be2c89b69c2b068fc378daa952ba7f163c4a11628f55a4df523b3ef60405160405180910390a4611ef4600083836001612101565b5050565b60007f01ffc9a7000000000000000000000000000000000000000000000000000000007bffffffffffffffffffffffffffffffffffffffffffffffffffffffff1916827bffffffffffffffffffffffffffffffffffffffffffffffffffffffff1916149050919050565b60008073ffffffffffffffffffffffffffffffffffffffff16611f84836119cd565b73ffffffffffffffffffffffffffffffffffffffff1614159050919050565b611faf848484846123e1565b6001811115611ff3576040517f08c379a0000000000000000000000000000000000000000000000000000000008152600401611fea90613ee2565b60405180910390fd5b6000829050600073ffffffffffffffffffffffffffffffffffffffff168573ffffffffffffffffffffffffffffffffffffffff160361203a57612035816123e7565b612079565b8373ffffffffffffffffffffffffffffffffffffffff168573ffffffffffffffffffffffffffffffffffffffff1614612078576120778582612430565b5b5b600073ffffffffffffffffffffffffffffffffffffffff168473ffffffffffffffffffffffffffffffffffffffff16036120bb576120b68161259d565b6120fa565b8473ffffffffffffffffffffffffffffffffffffffff168473ffffffffffffffffffffffffffffffffffffffff16146120f9576120f8848261266e565b5b5b5050505050565b50505050565b60006121288473ffffffffffffffffffffffffffffffffffffffff166126ed565b15612281578373ffffffffffffffffffffffffffffffffffffffff1663150b7a0261215161157e565b8786866040518563ffffffff1660e01b81526004016121739493929190613f57565b6020604051808303816000875af19250505080156121af57506040513d601f19601f820116820180604052508101906121ac9190613fb8565b60015b612231573d80600081146121df576040519150601f19603f3d011682016040523d82523d6000602084013e6121e4565b606091505b506000815103612229576040517f08c379a000000000000000000000000000000000000000000000000000000000815260040161222090613d49565b60405180910390fd5b805181602001fd5b63150b7a0260e01b7bffffffffffffffffffffffffffffffffffffffffffffffffffffffff1916817bffffffffffffffffffffffffffffffffffffffffffffffffffffffff191614915050612286565b600190505b949350505050565b600080600090507a184f03e93ff9f4daa797ed6e38ed64bf6a1f01000000000000000083106122ec577a184f03e93ff9f4daa797ed6e38ed64bf6a1f01000000000000000083816122e2576122e1613d69565b5b0492506040810190505b6d04ee2d6d415b85acef81000000008310612329576d04ee2d6d415b85acef8100000000838161231f5761231e613d69565b5b0492506020810190505b662386f26fc10000831061235857662386f26fc10000838161234e5761234d613d69565b5b0492506010810190505b6305f5e1008310612381576305f5e100838161237757612376613d69565b5b0492506008810190505b61271083106123a657612710838161239c5761239b613d69565b5b0492506004810190505b606483106123c957606483816123bf576123be613d69565b5b0492506002810190505b600a83106123d8576001810190505b80915050919050565b50505050565b6008805490506009600083815260200190815260200160002081905550600881908060018154018082558091505060019003906000526020600020016000909190919091505550565b6000600161243d846109a5565b6124479190613fe5565b905060006007600084815260200190815260200160002054905081811461252c576000600660008673ffffffffffffffffffffffffffffffffffffffff1673ffffffffffffffffffffffffffffffffffffffff168152602001908152602001600020600084815260200190815260200160002054905080600660008773ffffffffffffffffffffffffffffffffffffffff1673ffffffffffffffffffffffffffffffffffffffff168152602001908152602001600020600084815260200190815260200160002081905550816007600083815260200190815260200160002081905550505b6007600084815260200190815260200160002060009055600660008573ffffffffffffffffffffffffffffffffffffffff1673ffffffffffffffffffffffffffffffffffffffff16815260200190815260200160002060008381526020019081526020016000206000905550505050565b600060016008805490506125b19190613fe5565b90506000600960008481526020019081526020016000205490506000600883815481106125e1576125e0613301565b5b90600052602060002001549050806008838154811061260357612602613301565b5b90600052602060002001819055508160096000838152602001908152602001600020819055506009600085815260200190815260200160002060009055600880548061265257612651614019565b5b6001900381819060005260206000200160009055905550505050565b6000612679836109a5565b905081600660008573ffffffffffffffffffffffffffffffffffffffff1673ffffffffffffffffffffffffffffffffffffffff168152602001908152602001600020600083815260200190815260200160002081905550806007600084815260200190815260200160002081905550505050565b6000808273ffffffffffffffffffffffffffffffffffffffff163b119050919050565b6040518060a0016040528060608152602001600060ff1681526020016060815260200160608152602001606081525090565b6000604051905090565b600080fd5b600080fd5b60007fffffffff0000000000000000000000000000000000000000000000000000000082169050919050565b61278b81612756565b811461279657600080fd5b50565b6000813590506127a881612782565b92915050565b6000602082840312156127c4576127c361274c565b5b60006127d284828501612799565b91505092915050565b60008115159050919050565b6127f0816127db565b82525050565b600060208201905061280b60008301846127e7565b92915050565b600081519050919050565b600082825260208201905092915050565b60005b8381101561284b578082015181840152602081019050612830565b60008484015250505050565b6000601f19601f8301169050919050565b600061287382612811565b61287d818561281c565b935061288d81856020860161282d565b61289681612857565b840191505092915050565b600060208201905081810360008301526128bb8184612868565b905092915050565b6000819050919050565b6128d6816128c3565b81146128e157600080fd5b50565b6000813590506128f3816128cd565b92915050565b60006020828403121561290f5761290e61274c565b5b600061291d848285016128e4565b91505092915050565b600073ffffffffffffffffffffffffffffffffffffffff82169050919050565b600061295182612926565b9050919050565b61296181612946565b82525050565b600060208201905061297c6000830184612958565b92915050565b61298b81612946565b811461299657600080fd5b50565b6000813590506129a881612982565b92915050565b600080604083850312156129c5576129c461274c565b5b60006129d385828601612999565b92505060206129e4858286016128e4565b9150509250929050565b6129f7816128c3565b82525050565b6000602082019050612a1260008301846129ee565b92915050565b600080600060608486031215612a3157612a3061274c565b5b6000612a3f86828701612999565b9350506020612a5086828701612999565b9250506040612a61868287016128e4565b9150509250925092565b600060208284031215612a8157612a8061274c565b5b6000612a8f84828501612999565b91505092915050565b612aa1816127db565b8114612aac57600080fd5b50565b600081359050612abe81612a98565b92915050565b60008060408385031215612adb57612ada61274c565b5b6000612ae985828601612999565b9250506020612afa85828601612aaf565b9150509250929050565b600080fd5b600080fd5b7f4e487b7100000000000000000000000000000000000000000000000000000000600052604160045260246000fd5b612b4682612857565b810181811067ffffffffffffffff82111715612b6557612b64612b0e565b5b80604052505050565b6000612b78612742565b9050612b848282612b3d565b919050565b600067ffffffffffffffff821115612ba457612ba3612b0e565b5b612bad82612857565b9050602081019050919050565b82818337600083830152505050565b6000612bdc612bd784612b89565b612b6e565b905082815260208101848484011115612bf857612bf7612b09565b5b612c03848285612bba565b509392505050565b600082601f830112612c2057612c1f612b04565b5b8135612c30848260208601612bc9565b91505092915050565b60008060008060808587031215612c5357612c5261274c565b5b6000612c6187828801612999565b9450506020612c7287828801612999565b9350506040612c83878288016128e4565b925050606085013567ffffffffffffffff811115612ca457612ca3612751565b5b612cb087828801612c0b565b91505092959194509250565b600082825260208201905092915050565b6000612cd882612811565b612ce28185612cbc565b9350612cf281856020860161282d565b612cfb81612857565b840191505092915050565b600060ff82169050919050565b612d1c81612d06565b82525050565b600060a0830160008301518482036000860152612d3f8282612ccd565b9150506020830151612d546020860182612d13565b5060408301518482036040860152612d6c8282612ccd565b91505060608301518482036060860152612d868282612ccd565b91505060808301518482036080860152612da08282612ccd565b9150508091505092915050565b60006020820190508181036000830152612dc78184612d22565b905092915050565b60008060408385031215612de657612de561274c565b5b6000612df485828601612999565b9250506020612e0585828601612999565b9150509250929050565b600067ffffffffffffffff821115612e2a57612e29612b0e565b5b612e3382612857565b9050602081019050919050565b6000612e53612e4e84612e0f565b612b6e565b905082815260208101848484011115612e6f57612e6e612b09565b5b612e7a848285612bba565b509392505050565b600082601f830112612e9757612e96612b04565b5b8135612ea7848260208601612e40565b91505092915050565b612eb981612d06565b8114612ec457600080fd5b50565b600081359050612ed681612eb0565b92915050565b600080600080600060a08688031215612ef857612ef761274c565b5b600086013567ffffffffffffffff811115612f1657612f15612751565b5b612f2288828901612e82565b9550506020612f3388828901612ec7565b945050604086013567ffffffffffffffff811115612f5457612f53612751565b5b612f6088828901612e82565b935050606086013567ffffffffffffffff811115612f8157612f80612751565b5b612f8d88828901612e82565b925050608086013567ffffffffffffffff811115612fae57612fad612751565b5b612fba88828901612e82565b9150509295509295909350565b7f4e487b7100000000000000000000000000000000000000000000000000000000600052602260045260246000fd5b6000600282049050600182168061300e57607f821691505b60208210810361302157613020612fc7565b5b50919050565b7f4552433732313a20617070726f76616c20746f2063757272656e74206f776e6560008201527f7200000000000000000000000000000000000000000000000000000000000000602082015250565b600061308360218361281c565b915061308e82613027565b604082019050919050565b600060208201905081810360008301526130b281613076565b9050919050565b7f4552433732313a20617070726f76652063616c6c6572206973206e6f7420746f60008201527f6b656e206f776e6572206f7220617070726f76656420666f7220616c6c000000602082015250565b6000613115603d8361281c565b9150613120826130b9565b604082019050919050565b6000602082019050818103600083015261314481613108565b9050919050565b7f4552433732313a2063616c6c6572206973206e6f7420746f6b656e206f776e6560008201527f72206f7220617070726f76656400000000000000000000000000000000000000602082015250565b60006131a7602d8361281c565b91506131b28261314b565b604082019050919050565b600060208201905081810360008301526131d68161319a565b9050919050565b7f455243373231456e756d657261626c653a206f776e657220696e646578206f7560008201527f74206f6620626f756e6473000000000000000000000000000000000000000000602082015250565b6000613239602b8361281c565b9150613244826131dd565b604082019050919050565b600060208201905081810360008301526132688161322c565b9050919050565b7f455243373231456e756d657261626c653a20676c6f62616c20696e646578206f60008201527f7574206f6620626f756e64730000000000000000000000000000000000000000602082015250565b60006132cb602c8361281c565b91506132d68261326f565b604082019050919050565b600060208201905081810360008301526132fa816132be565b9050919050565b7f4e487b7100000000000000000000000000000000000000000000000000000000600052603260045260246000fd5b7f4552433732313a20696e76616c696420746f6b656e2049440000000000000000600082015250565b600061336660188361281c565b915061337182613330565b602082019050919050565b6000602082019050818103600083015261339581613359565b9050919050565b7f4552433732313a2061646472657373207a65726f206973206e6f74206120766160008201527f6c6964206f776e65720000000000000000000000000000000000000000000000602082015250565b60006133f860298361281c565b91506134038261339c565b604082019050919050565b60006020820190508181036000830152613427816133eb565b9050919050565b600081905092915050565b600061344482612811565b61344e818561342e565b935061345e81856020860161282d565b80840191505092915050565b60006134768285613439565b91506134828284613439565b91508190509392505050565b7f596f7520646f6e277420686176652061206361726420746f2065786368616e6760008201527f6500000000000000000000000000000000000000000000000000000000000000602082015250565b60006134ea60218361281c565b91506134f58261348e565b604082019050919050565b60006020820190508181036000830152613519816134dd565b9050919050565b7f726563697069656e7420646f6e277420686176652061206361726420746f206560008201527f786368616e676500000000000000000000000000000000000000000000000000602082015250565b600061357c60278361281c565b915061358782613520565b604082019050919050565b600060208201905081810360008301526135ab8161356f565b9050919050565b60006060820190506135c760008301866129ee565b6135d460208301856129ee565b6135e16040830184612958565b949350505050565b7f506179207468652069737375616e636520666565000000000000000000000000600082015250565b600061361f60148361281c565b915061362a826135e9565b602082019050919050565b6000602082019050818103600083015261364e81613612565b9050919050565b7f4e6577206d656d62657220646f206e6f74206e65656420746f20706179000000600082015250565b600061368b601d8361281c565b915061369682613655565b602082019050919050565b600060208201905081810360008301526136ba8161367e565b9050919050565b60008190508160005260206000209050919050565b60006020601f8301049050919050565b600082821b905092915050565b6000600883026137237fffffffffffffffffffffffffffffffffffffffffffffffffffffffffffffffff826136e6565b61372d86836136e6565b95508019841693508086168417925050509392505050565b6000819050919050565b600061376a613765613760846128c3565b613745565b6128c3565b9050919050565b6000819050919050565b6137848361374f565b61379861379082613771565b8484546136f3565b825550505050565b600090565b6137ad6137a0565b6137b881848461377b565b505050565b5b818110156137dc576137d16000826137a5565b6001810190506137be565b5050565b601f821115613821576137f2816136c1565b6137fb846136d6565b8101602085101561380a578190505b61381e613816856136d6565b8301826137bd565b50505b505050565b600082821c905092915050565b600061384460001984600802613826565b1980831691505092915050565b600061385d8383613833565b9150826002028217905092915050565b61387682612811565b67ffffffffffffffff81111561388f5761388e612b0e565b5b6138998254612ff6565b6138a48282856137e0565b600060209050601f8311600181146138d757600084156138c5578287015190505b6138cf8582613851565b865550613937565b601f1984166138e5866136c1565b60005b8281101561390d578489015182556001820191506020850194506020810190506138e8565b8683101561392a5784890151613926601f891682613833565b8355505b6001600288020188555050505b505050505050565b61394881612d06565b82525050565b600060a08201905081810360008301526139688188612868565b9050613977602083018761393f565b81810360408301526139898186612868565b9050818103606083015261399d8185612868565b905081810360808301526139b18184612868565b90509695505050505050565b6000815490506139cc81612ff6565b9050919050565b8181036139e1575050613ab9565b6139ea826139bd565b67ffffffffffffffff811115613a0357613a02612b0e565b5b613a0d8254612ff6565b613a188282856137e0565b6000601f831160018114613a475760008415613a35578287015490505b613a3f8582613851565b865550613ab2565b601f198416613a55876136c1565b9650613a60866136c1565b60005b82811015613a8857848901548255600182019150600185019450602081019050613a63565b86831015613aa55784890154613aa1601f891682613833565b8355505b6001600288020188555050505b5050505050505b565b7f4e487b7100000000000000000000000000000000000000000000000000000000600052601160045260246000fd5b6000613af582612d06565b915060ff8203613b0857613b07613abb565b5b600182019050919050565b6000613b1e826128c3565b9150613b29836128c3565b9250828201905080821115613b4157613b40613abb565b5b92915050565b7f4552433732313a207472616e736665722066726f6d20696e636f72726563742060008201527f6f776e6572000000000000000000000000000000000000000000000000000000602082015250565b6000613ba360258361281c565b9150613bae82613b47565b604082019050919050565b60006020820190508181036000830152613bd281613b96565b9050919050565b7f4552433732313a207472616e7366657220746f20746865207a65726f2061646460008201527f7265737300000000000000000000000000000000000000000000000000000000602082015250565b6000613c3560248361281c565b9150613c4082613bd9565b604082019050919050565b60006020820190508181036000830152613c6481613c28565b9050919050565b7f4552433732313a20617070726f766520746f2063616c6c657200000000000000600082015250565b6000613ca160198361281c565b9150613cac82613c6b565b602082019050919050565b60006020820190508181036000830152613cd081613c94565b9050919050565b7f4552433732313a207472616e7366657220746f206e6f6e20455243373231526560008201527f63656976657220696d706c656d656e7465720000000000000000000000000000602082015250565b6000613d3360328361281c565b9150613d3e82613cd7565b604082019050919050565b60006020820190508181036000830152613d6281613d26565b9050919050565b7f4e487b7100000000000000000000000000000000000000000000000000000000600052601260045260246000fd5b7f4552433732313a206d696e7420746f20746865207a65726f2061646472657373600082015250565b6000613dce60208361281c565b9150613dd982613d98565b602082019050919050565b60006020820190508181036000830152613dfd81613dc1565b9050919050565b7f4552433732313a20746f6b656e20616c7265616479206d696e74656400000000600082015250565b6000613e3a601c8361281c565b9150613e4582613e04565b602082019050919050565b60006020820190508181036000830152613e6981613e2d565b9050919050565b7f455243373231456e756d657261626c653a20636f6e736563757469766520747260008201527f616e7366657273206e6f7420737570706f727465640000000000000000000000602082015250565b6000613ecc60358361281c565b9150613ed782613e70565b604082019050919050565b60006020820190508181036000830152613efb81613ebf565b9050919050565b600081519050919050565b600082825260208201905092915050565b6000613f2982613f02565b613f338185613f0d565b9350613f4381856020860161282d565b613f4c81612857565b840191505092915050565b6000608082019050613f6c6000830187612958565b613f796020830186612958565b613f8660408301856129ee565b8181036060830152613f988184613f1e565b905095945050505050565b600081519050613fb281612782565b92915050565b600060208284031215613fce57613fcd61274c565b5b6000613fdc84828501613fa3565b91505092915050565b6000613ff0826128c3565b9150613ffb836128c3565b925082820390508181111561401357614012613abb565b5b92915050565b7f4e487b7100000000000000000000000000000000000000000000000000000000600052603160045260246000fdfea264697066735822122045aea7129bc12fe3c6e8bde2b9a5744af82c0f04242d5f38f12c795de7f6296f64736f6c63430008130033",
  "linkReferences": {},
  "deployedLinkReferences": {}
}